:100000000C942A000C943C000C943C000C943C0092
:100010000C943C000C943C000C943C000C943C0070
:100020000C943C000C943C000C943C000C943C0060
:100030000C943C000C944B000C943C000C943C0041
:100040000C943C000C943C000C943C000C943C0040
:100050000C943C0011241FBECFE5D8E0DEBFCDBF1D
:1000600020E0A0E6B0E001C01D92AE3CB207E1F78F
:100070000E9433030C94EB040C9400002FEF2093A8
:100080006A0020936B0090BD89B986E880BD88E93D
:100090008AB9789408951F920F920FB60F92112487
:1000A0002F933F934F938F939F93EF93FF934CB175
:1000B00080916A008F3521F480916B00882371F064
:1000C00080916A0020916B00082E000C990B01961C
:1000D000022E000C330B8217930759F480916B00AA
:1000E0008F5F80936B0080916B00803611F41092CB
:1000F0006B0080916A008F3519F410926A0005C078
:1001000080916A008F5F80936A00E0916A000E2EF2
:10011000000CFF0BE459FF4F408380916B008F3F31
:1001200011F410926B00FF91EF919F918F914F917D
:100130003F912F910F900FBE0F901F9018958091B7
:100140006B008F3F01F1E0916B000E2E000CFF0B56
:10015000E459FF4F808120916B0090916A00291330
:1001600006C09FEF90936A0090936B000895909162
:100170006B009F5F90936B0090916B00903621F421
:1001800010926B00089580E0089580916B008F3F7E
:10019000C9F090916B0080916A00981734F48091B7
:1001A0006A0090916B008F5F0BC090916B00809103
:1001B0006A0089174CF480916A0090916B008F5906
:1001C000891B089580E0089581E00895C298C3983E
:1001D0000895C29AC3980895C298C39A0895C09882
:1001E000C1980895C09AC1980895C098C19A089579
:1001F000C89B07C081E090E09093690080936800FD
:1002000004C01092690010926800C99B07C081E089
:1002100090E0909367008093660004C0109267009E
:1002200010926600CC9B07C081E090E0909365003F
:100230008093640004C01092650010926400CA9B11
:1002400007C081E090E0909363008093620004C057
:100250001092630010926200CB9B07C081E090E097
:100260009093610080936000089510926100109255
:100270006000089589B3082E000C990B8095909525
:10028000892F881F8827881F90E008951ABA8FEF5A
:100290008BBB87BB8D9A1DBC1CBC87E893E197BDC7
:1002A00086BD82E88FBD8BE18EBD18BACD992BC07B
:1002B00082E291E09BBD8ABD2FEF35E38EE691E0AF
:1002C0002150304080409040D9F700C0000088ECB9
:1002D00091E09BBD8ABD2AEA36EE86E991E0215085
:1002E000304080409040D9F7000081E792E09BBD0C
:1002F0008ABD2AEA36EE86E991E0215030408040FE
:100300009040D9F700000895CF92DF92EF92FF92CC
:100310000F931F93CF93DF93CDB7DEB72A970FB616
:10032000F894DEBF0FBECDBF8FE39CE90197F1F7D4
:1003300000C000000E94C5008E30B0F30E949F00F4
:10034000823091F70E949F000E949F008E010F5FF4
:100350001F4F6E0199E0C90ED11C78010E949F00C9
:10036000F80181938F01EC15FD05C1F719860E94F4
:100370009F000E949F000E949F0040E150E060E0CB
:1003800070E0C7010E944603CB012A960FB6F8948D
:10039000DEBF0FBECDBFDF91CF911F910F91FF90B8
:1003A000EF90DF90CF9008958D9A1DBC1CBC87E81C
:1003B00093E197BD86BD82E88FBD8BE18EBD87E658
:1003C00090E00E943E002FEF87EA91E621508040A6
:1003D0009040E1F700C000000E94840189382FE3BB
:1003E000920719F482E291E00CC0883223E592076B
:1003F00019F488EC91E005C08037984389F481E7CF
:1004000092E09BBD8ABD8FEF93ED20E38150904039
:100410002040E1F700C000008DE790E09BBD8ABD61
:1004200081E090E00895DF92EF92FF920F931F9387
:10043000CF93DF931ABA8FEF87BB8D9A1DBC1CBC7C
:1004400087E893E197BD86BD82E88FBD8BE18EBDC5
:10045000E0916800F091690081E0E130F10509F078
:1004600080E0009166001091670071E00130110595
:1004700009F070E0D82ED722E0906400F09065007B
:10048000C0916200D091630061E0C130D10509F0F4
:1004900060E0A0916000B091610091E0A130B105F1
:1004A00009F090E021E031E0E316F10409F020E0EA
:1004B0002623292369F0DD2059F00E94E600DF9110
:1004C000CF911F910F91FF90EF90DF900C94EF0070
:1004D00051E0EF2809F050E0272F262369F055233B
:1004E00059F00E94E900DF91CF911F910F91FF9089
:1004F000EF90DF900C94F20021E0012B09F020E056
:10050000382F36233923352369F0222359F00E94EE
:10051000F200DF91CF911F910F91FF90EF90DF904C
:100520000C94E60031E0CD2B09F030E0492F452353
:10053000432369F0DD2059F00E94EF00DF91CF9155
:100540001F910F91FF90EF90DF900C94E90041E034
:10055000AB2B09F040E0832384237723C1F0882369
:10056000B1F00E94EF000E94E9008FEF93EC29E0C8
:10057000815090402040E1F700C00000DF91CF9112
:100580001F910F91FF90EF90DF900C94F5002223C4
:1005900011F08111E6CF81E0EF2B09F080E02823F4
:1005A00092236623C1F09923B1F00E94E6000E94D5
:1005B000F2003FEF83EC99E0315080409040E1F74A
:1005C00000C00000DF91CF911F910F91FF90EF903D
:1005D000DF900C94EC00332311F09111E6CF35231A
:1005E0003423C9F12223B9F10E94E6000E94EF00F2
:1005F0000E94D40191E02091680030916900232B82
:1006000009F090E081E02091660030916700232B93
:1006100009F080E0892391E0209164003091650029
:10062000232B09F090E0982381E020916200309123
:100630006300232B09F080E0892369F0809160003A
:1006400090916100892B39F40E94F2000E94E90028
:100650000E94F800CFCFDF91CF911F910F91FF90B3
:10066000EF90DF9008951ABA8FEF87BB80EE8BBBB7
:100670000E943A01009719F40E944601FDCF0197AC
:10068000B9F70E94F8000E941302FBCFA0E0B0E08F
:10069000ECE4F3E00C94A6045C016B017A016115B3
:1006A000710519F0FB0191838083E114F10429F0B5
:1006B000C7010297839708F0E5C0E5012196F5018F
:1006C0001081812F90E00E945C04892B11F05E0163
:1006D000F4CF1D3229F42196F501118101E007C004
:1006E0001B3221F4E5012296F501118100E0E114AD
:1006F000F10409F1F0E1EF16F10429F43FC010E331
:10070000E114F10421F128E0E216F10401F154F4BE
:10071000E2E0EE16F10421F5812C912CA12CB0E43D
:10072000BB2E3EC0FAE0EF16F10439F020E1E216EC
:10073000F104B1F430C0103319F1FAE0EF2EF12CCE
:10074000ACEC8A2E982CA82CACE0BA2E29C078E00C
:10075000E72EF12C812C912CA12CE0E1BE2E20C0A3
:1007600060E070E080E090E897010F2C000C440BF3
:10077000550B0E94780449015A0112C0103359F4F4
:1007800088818F7D883509F0BACF19812296026061
:1007900080E1E82EF12C812C912CA12C68E0B62E62
:1007A00040E060E070E0CB0127010F2C000C6608F0
:1007B0007708FE0150ED352E310E29E0231570F437
:1007C0002FEB210F2A3118F439EC332E06C02FE914
:1007D000210F2A3118F529EA322E310E232D30E06F
:1007E0002E153F05DCF447FD16C086169706A806B1
:1007F000B90670F0A30192010E946804630D711D97
:10080000811D911D61307105810520E8920710F06E
:100810004FEF01C041E021961081CBCF202F2170F6
:10082000C114D10471F0442329F02197F601D1833A
:10083000C08307C001FF19C02297F601D183C0838E
:1008400014C047FF12C0222329F060E070E080E06E
:1008500090E804C06FEF7FEF8FEF9FE722E230E078
:100860003093CD002093CC0009C0222381F09095D5
:100870008095709561957F4F8F4F9F4F462F372FF3
:10088000282F12C040E030E020E090E00DC097FF3C
:10089000F5CF82E290E09093CD008093CC006FEF93
:1008A0007FEF8FEF9FE7EACF642F732F822FCDB7B3
:1008B000DEB7E1E10C94C20491110C94650480321E
:1008C00019F089508550C8F7089599278827089509
:1008D000DB018F939F930E949A04BF91AF91A29FD7
:1008E000800D911DA39F900DB29F900D112408952E
:1008F000A1E21A2EAA1BBB1BFD010DC0AA1FBB1F24
:10090000EE1FFF1FA217B307E407F50720F0A21B95
:10091000B30BE40BF50B661F771F881F991F1A9402
:1009200069F760957095809590959B01AC01BD012C
:10093000CF0108950E94DC04A59F900DB49F900DF7
:10094000A49F800D911D112408952F923F924F92E4
:100950005F926F927F928F929F92AF92BF92CF924F
:10096000DF92EF92FF920F931F93CF93DF93CDB758
:10097000DEB7CA1BDB0B0FB6F894DEBF0FBECDBFD0
:1009800009942A88398848885F846E847D848C84A1
:100990009B84AA84B984C884DF80EE80FD800C81AA
:1009A0001B81AA81B981CE0FD11D0FB6F894DEBF8D
:1009B0000FBECDBFED010895A29FB001B39FC0014E
:1009C000A39F700D811D1124911DB29F700D811D7B
:0A09D0001124911D0895F894FFCF43
:00000001FF
